:020000040000fa
:10000000f07f00203d290000a32c0000a92c000057
:1000100000000000000000000000000000000000e0
:100020000000000000000000000000002f2c000075
:1000300000000000000000002f2c00002f2c00000a
:100040002f2c00002f2c00002f2c00002f2c000044
:100050002f2c00002f2c00002f2c00002f2c000034
:100060002f2c00002f2c00002f2c00002f2c000024
:100070002f2c00002f2c00002f2c00002f2c000014
:100080002f2c00002f2c00002f2c0000cd29000069
:100090002f2c00002f2c00002f2c00002f2c0000f4
:1000a0002f2c00002f2c00002f2c00002f2c0000e4
:020000040000fa
:1000b000f8b5c046f8bc08bc9e467047d52800007d
:1000c000f8b5c046f8bc08bc9e467047ad28000095
:020000040000fa
:1000d000f7b50d0009036c00ed0f0095490a450fb7
:1000e00029431d035e00c700d80f6b0a550f2b4331
:1000f000c14d640d760dd200ae4203d11d00844681
:10010000154302d101254540ac46009da01bac45de
:1001100000d036e1002861dd002e25d11d001543f9
:1001200000d196e2461e002e19d1ba18ba42a44157
:10013000c91864420919170001240b0200d4bee05b
:10014000ad4b01349c4200d180e2ac487b080140b9
:10015000012007401f43c80707434908afe0a64de9
:10016000a84209d1a44caae0a34dac4200d1a6e01c
:10017000802506002d042b43382e2adc1f2e17dc89
:1001800020201d00801b8540ac4615000190f540e5
:10019000604605430198f3408240501e824115435a
:1001a000ed195b18bd428941494259182f00c4e737
:1001b00030001d002038c5400020202e03d04020f4
:1001c000861bb34018000243501e82411543002392
:1001d000e6e71a4315006a1e9541f8e7002850d05b
:1001e000002c14d10c003c4300d128e2c443002c65
:1001f00007d1bf189742a441c918644209193400b5
:100200009be77d48864209d119001700aae77a4c7e
:10021000a642f9d04442802000040143382c2bdc54
:100220001f2c17dc2025281b01900800019de140b0
:10023000a840844638006546e0402843019daf4011
:100240007d1eaf413843871897429241c9185242e8
:100250008918d4e720000d002038c540280000256b
:10026000202c03d040252c1ba1400d002f437d1ec8
:10027000af4138430021e6e70f433800471eb8413d
:10028000f8e7661c75056d0d012d00dd69e00800bd
:100290003843002c49d1002800d1d3e11800104385
:1002a0000dd0ba18ba42b641c918802376428919ce
:1002b0001b041700194202d00124504b19407b0740
:1002c00009d00f233b40042b05d03b1dbb42bf414f
:1002d0007f42c9191f000b0206d5474b01349c42cf
:1002e00000d1c3e1454b1940434b4807ff08384351
:1002f000c9089c4206d103000b4300d1b9e1802319
:100300001b031943002709033b0d1b05090b194368
:100310003b4b6405194064080c43009b6400d907fb
:1003200064080c43210003b0f0bd002800d16be746
:100330001800104300d115e74807ff080743802045
:10034000c9080003014207d0dc08044204d1d208e6
:100350005b0713431f002100780fc9000143ff0012
:1003600000e7254ca64200d16fe1ba18c918ba427d
:100370009b415b42cb18df075208174359083400f2
:100380009de700285ddd002e3cd11d00154300d106
:100390005fe1461e002e0ed1ba1a9742bf41c91a1c
:1003a0007f42c91b012417000b0200d487e74902d2
:1003b0004d0a3e00f9e0104da84200d1d2e6382e99
:1003c0003adc1f2e27dc20201d00801b8540ac4618
:1003d00015000190f540604605430198f3408240c6
:1003e000501e824115437d1bcb1aaf4289414942c1
:1003f000591a2f00d8e7c046ff070000ffff7fff14
:10040000ffff0f809c4dac4200d158e780252d04a2
:100410002b430600d3e730001d002038c5400020e4
:10042000202e03d04020861bb34018000243501eec
:10043000824115430023d6e71a4315006a1e9541f1
:10044000f8e700284dd0002c17d10c003c4300d118
:1004500001e1c443002c09d1d71bba429241591a79
:1004600063465242891a340000939de782488642cf
:100470000ad119001700804c45e07f4ca642f8d005
:100480004442802000040143382c25dc1f2c11dc61
:100490002025281b00900800009de140a840050091
:1004a0003800e0402843009daf407d1eaf413843f7
:1004b000171ad2e720000d002038c540280000257b
:1004c000202c03d040252c1ba1400d002f437d1e66
:1004d000af4138430021ebe70f433800471eb841d6
:1004e000f8e7601c4005400d01284cdc18000d00a9
:1004f00010433d43002c24d1002d07d1071e00d10d
:10050000ade01900170063460093d8e6002800d13b
:10051000d5e6bd1aaf42b641c81a7642801b802686
:100520003604304206d0d71bba429241591a524281
:10053000891ae8e72f00074300d190e001002f005f
:10054000bde6002d07d1071e00d18be019006346e0
:100550001700009306e6002800d103e64807ff08cd
:1005600007438020c9080003014200d1f4e6dc08fb
:10057000044200d0f0e6d2085b0713431f00634635
:1005800021000093e8e6be1ab7428041cd1a4042ee
:100590002d1a8020000405422dd0d61bb242ad4159
:1005a000591a63466d424d1b0093002d29d0280037
:1005b00002f02afa0300083b1f2b27dc202231001f
:1005c0009e40d21a9d40d14037000d439c4232dc00
:1005d0001c1b661c1f2e1edc20233a0029009b1bbf
:1005e0009940f2409f400a43791e8f412900f14013
:1005f0001743002463e637002f43d6d139003c006f
:100600002ee0300002f000fa2030d3e73500283821
:1006100085400027dae72a001f3ce2400023202e15
:1006200003d040239e1b2b00b3401f437b1e9f41e2
:1006300000211743dde71149e41a29403fe619007c
:1006400017009ce61900170039e60b4c00210f003b
:1006500035e6040033e619001700340053e739008b
:1006600000972ce68021044cc903f9e700210f0014
:100670003ae6190046e6c046ff070000ffff7fff8d
:10068000f7b50d0009036c00ed0f0095490a450f01
:100690005e0029431d03db0f9c466b0a550f2b435d
:1006a000009d640d760dc700d200a01b654500d0eb
:1006b00036e1002861dd002e25d11d00154300d153
:1006c00097e2461e002e19d1ba18ba42a441c918a1
:1006d00064420919170001240b0200d4bee0bd4b8f
:1006e00001349c4200d181e2bb487b0801400120db
:1006f00007401f43c80707434908afe0b54da8426c
:1007000009d1b44caae0b34dac4200d1a6e080259b
:1007100006002d042b43382e2adc1f2e17dc202048
:100720001d00801b8540ac4615000190f5406046d9
:1007300005430198f3408240501e82411543ed1954
:100740005b18bd428941494259182f00c4e7300067
:100750001d002038c5400020202e03d04020861bdd
:10076000b34018000243501e824115430023e6e7c0
:100770001a4315006a1e9541f8e7002850d0002c56
:1007800014d10c003c4300d129e2c443002c07d112
:10079000bf189742a441c9186442091934009be765
:1007a0008c48864209d119001700aae7894ca64255
:1007b000f9d04442802000040143382c2bdc1f2c4c
:1007c00017dc2025281b01900800019de140a8406e
:1007d000844638006546e0402843019daf407d1eb9
:1007e000af413843871897429241c918524289183d
:1007f000d4e720000d002038c54028000025202c1b
:1008000003d040252c1ba1400d002f437d1eaf417e
:1008100038430021e6e70f433800471eb841f8e7a8
:10082000661c75056d0d012d00dd69e0080038437b
:10083000002c49d1002800d1d4e1180010430dd07c
:10084000ba18ba42b641c9188023764289191b04e6
:100850001700194202d001245f4b19407b0709d0d1
:100860000f233b40042b05d03b1dbb42bf417f42c1
:10087000c9191f000b0206d5564b01349c4200d10a
:10088000c4e1554b1940534b4807ff083843c9088a
:100890009c4206d103000b4300d1bae180231b0325
:1008a0001943002709033b0d1b05090b19434b4b4b
:1008b0006405194064080c43009b6400d907640870
:1008c0000c43210003b0f0bd002800d16be71800f5
:1008d000404c1043c2d04807ff0807438020c90896
:1008e0000003014207d0dc08044204d1d2085b07b0
:1008f00013431f002100780fc9000143ff0000e7e8
:10090000344ca64200d170e1ba18c918ba429b41d2
:100910005b42cb18df0752081743590834009de7a4
:1009200000285ddd002e35d11d00154300d160e1aa
:10093000461e002e0ed1ba1a9742bf41c91a7f42f5
:10094000c91b012417000b0200d487e749024d0a96
:100950003e00fae01f4da84200d1d2e6382e33dc2b
:100960001f2e20dc20201d00801b8540ac4615007a
:100970000190f540604605430198f3408240501ec7
:10098000824115437d1bcb1aaf4289414942591a16
:100990002f00d8e70f4dac4200d15fe780252d0432
:1009a0002b430600dae730001d002038c540002048
:1009b000202e03d04020861bb34018000243501e57
:1009c000824115430023dde71a4315006a1e954155
:1009d000f8e7c046ff070000ffff7fffffff0f8023
:1009e00000284dd0002c17d10c003c4300d102e16f
:1009f000c443002c09d1d71bba429241591a63460d
:100a00005242891a340000939de7834886420ad1f6
:100a100019001700804c45e07f4ca642f8d04442b4
:100a2000802000040143382c25dc1f2c11dc2025fc
:100a3000281b00900800009de140a84005003800f8
:100a4000e0402843009daf407d1eaf413843171a58
:100a5000d2e720000d002038c54028000025202cba
:100a600003d040252c1ba1400d002f437d1eaf411c
:100a700038430021ebe70f433800471eb841f8e741
:100a8000601c4005400d01284ddc18000d0010438e
:100a90003d43002c24d1002d07d1071e00d1aee02c
:100aa0001900170063460093d8e6002800d1d5e668
:100ab000bd1aaf42b641c81a7642801b8026360462
:100ac000304206d0d71bba429241591a5242891a73
:100ad000e8e72f00074300d191e001002f00bde6b9
:100ae000002d07d1071e00d18ce0190063461700c6
:100af000009306e6484c002800d1afe64807ff08ff
:100b000007438020c9080003014200d1f3e6dc0856
:100b1000044200d0efe6d2085b0713431f00634690
:100b200021000093e7e6be1ab7428041cd1a404249
:100b30002d1a8020000405422dd0d61bb242ad41b3
:100b4000591a63466d424d1b0093002d29d0280091
:100b500001f05aff0300083b1f2b27dc2022310045
:100b60009e40d21a9d40d14037000d439c4232dc5a
:100b70001c1b661c1f2e1edc20233a0029009b1b19
:100b80009940f2409f400a43791e8f412900f1406d
:100b90001743002462e637002f43d6d139003c00ca
:100ba0002ee0300001f030ff2030d3e73500283848
:100bb00085400027dae72a001f3ce2400023202e70
:100bc00003d040239e1b2b00b3401f437b1e9f413d
:100bd00000211743dde71149e41a29403ee61900d8
:100be00017009be61900170038e60b4c00210f0098
:100bf00034e6040032e619001700340052e73900e9
:100c000000972be68021044cc903f9e700210f006f
:100c100039e6190045e6c046ff070000ffff7fffe9
:100c2000f0b58bb0060004930400cb0f0d03480011
:100c300000922d0b400d0393029346d0584b9842df
:100c400067d08023720f1b04ed0013432b431f005a
:100c5000544bf400c31800260193049b009a1d0313
:100c60005800db0f2d0b400d069361d04c4b984282
:100c700000d181e08023520f1b041343ed001d437c
:100c8000484a009b8218db0094460022069803998c
:100c90004140604604910199091ab000104301389f
:100ca00005910e2800d981e001f0d6ff75004902b8
:100cb000ed0149023d024902ed01750075003d025a
:100cc000ed01fc01fc01fc01e2012f00374327d0bc
:100cd000002d13d0280001f097fe01000b391c29cc
:100ce00011dc02001d2337003400083a5b1a9540de
:100cf000df4094402f432c4b1b1aace7300001f02f
:100d000083fe2030e9e70300283b9e4000243700a3
:100d1000f1e72e43371e07d02f00019003269ce7f2
:100d20003c000197012698e734000190022694e7e1
:100d3000009b2b4327d0002d13d0280001f064fe28
:100d400001000b391c2911dc1d2302005b1a0099dc
:100d5000083ad940009b954093400d43124a121a1d
:100d600092e7100001f050fe2030e9e70300009dfb
:100d7000283b9d400023f1e7009b2b4307d0130045
:100d80008446032282e71d009c4601227ee71d0067
:100d9000844602227ae700252c00014b4ee1c04632
:100da000ff07000001fcffff0dfcffffaf4204d86e
:100db00000d057e19c4200d254e1f9076208114388
:100dc000e0070c0001907f082d021a0e2a431b0237
:100dd0000293130c03936b4600921b88039938000f
:100de000079301f03dfa0600079b0690039938002f
:100df0005e4301f071fa250c09040d43069fae42d3
:100e000009d9009b013fed18ab4204d8ae4202d98c
:100e1000069fed18023fab1b03991800069301f0e3
:100e20001ffa079e050046430399069801f054fafd
:100e3000a4b209040c432a00a64208d9009b013a37
:100e4000e418a34203d8a64201d9aa1ee4183b0421
:100e500002991343029a0904120c090c0892069194
:100e6000089d06989ab2a61b1c0c514360436a4326
:100e70006c4312180d0caa18904202d9802040022f
:100e80002418100c09041204090c04195218a64263
:100e900005d31f00a64227d10199914224d202987e
:100ea00001998446614401918142894100984942f7
:100eb000091876185f1eb04204d315d16146019817
:100ec000814211d8b44203d80ed101998a420bd97c
:100ed00002999f1e8c46019b634401938b429b4168
:100ee00000995b425b18f618019b341b9b1a09930f
:100ef000099a019b93429b415b42e41a009ba342e7
:100f000000d1d2e00399200001f0aaf9079d060064
:100f100045430399200001f0dff9099b09041c0ceb
:100f20000c430196a5420cd93300013b0193009b71
:100f3000e418a34205d8a54203d9b31e0193009b30
:100f4000e418641b0399200001f08af9079d06004c
:100f500045430399200001f0bff96b460a04998cc0
:100f6000330011438d4208d9009a013b89188a4207
:100f700003d88d4201d9b31e8918019a089c120426
:100f80001a43100c93b24d1b16000699069a414362
:100f90005a43634360435b18140ce318994202d927
:100fa000802149024018190c12041b04120c081865
:100fb0009b18854204d3340085421bd1002b1bd0e3
:100fc000009a741e5519aa420fd8a84203d811d10d
:100fd000029a9a420bd2029ab41e51009142924157
:100fe000009e52429219ad180291854202d1029a96
:100ff000934201d001231c43059b564a9b18002baa
:1010000056dd620709d00f222240042a05d0221d96
:10101000a242a44164423f191400fa0106d580227d
:10102000d20094464c4b1f40059b63444b4a93426d
:1010300000dd88e0e40879070c43fd0800212d035a
:101040000a0d12052d0b1543454a5b0515405b083b
:101050002b43049a5b00d2075b081343200019005e
:101060000bb0f0bd059a013a059200220192abe661
:101070008022120317425ad0154258d12f001c006b
:10108000069b029353e02f0016001c00069b04935e
:10109000022e58d0032e50d0012eadd100242500b1
:1010a0002300cbe7039b0493f2e701246442a3e708
:1010b0000122d21a382af1dc1f2a21dc2023200049
:1010c0009b1a39009c403d009940d040631e9c41d2
:1010d000d54001430c43630709d00f232340042b61
:1010e00005d0231da342a44164422d191c00802376
:1010f0001b042b402ad16907e4080c43ed089de747
:101100001f214942cb1a3900d9400b000021202a67
:1011100003d040218a1a390091400c43611e8c4152
:1011200000251c43d7e7802700243f030294802535
:10113000029b2d033d4304932fe6049ba1e700256a
:101140002c002b007ae70024250026e60025012349
:101150002c0073e7ff030000fffffffefe07000007
:10116000ffff0f80f0b58bb001920593ca0f0c03ff
:101170004b000600240b5b0d0492039245d0c64a37
:10118000934265d08022410f12040a43e4001443c5
:10119000c24ac5009b1800270293059b019a1e03b3
:1011a0005800db0f360b400d059360d0ba4b9842c8
:1011b00000d180e08023520f1b041343f6001e432e
:1011c000b64a019b8218db009446002205980499d8
:1011d000414001910299b8006144104307910138e0
:1011e000013106910e2879d801f036fd74007400a3
:1011f0007b0171017101bc017b017101bc017101b5
:101200007b016f016f016f0164012500054326d04a
:10121000002c13d0200001f0f7fb01000b391c2932
:1012200010dc1d2302005b1a31003500083a94409f
:10123000d94095400c439a4b1b1aace701f0e4fbf4
:101240002030eae703003400283b9c400025f2e709
:101250000500254307d00500029303279de72c00d6
:101260000295012799e72c000293022795e7019b3d
:10127000334327d0002e13d0300001f0c5fb01000e
:101280000b391c2911dc1d2302005b1a0199083a55
:10129000d940019b964093400e43814a121a93e72e
:1012a000100001f0b1fb2030e9e70300019e283b6c
:1012b0009e400023f1e7019b334307d0130084468f
:1012c000032283e71e009c4601227fe71e0084461e
:1012d00002227be734001d001700f8e0190c9bb2d6
:1012e000029119002a0c514318008c46029f029962
:1012f000adb2684351436f4304916744010cc9196f
:1013000003908c4506d9049f380080277f02bc4695
:1013100060440490684680890f0c090409180991fb
:10132000310cb6b2039130003100bc46039f6943d3
:1013300050437d437a432d180f0c7d19a84202d9e2
:10134000802040021218280c82182d0489b20592c0
:101350006a1808921800089962468c46029f210c70
:10136000a4b260434b43674362449446029dff1816
:10137000020cd2194d43934202d980235b02ed182f
:101380003700130c5b190293039b67434e435c4386
:101390005943a4193b0c120480b21c191018a64220
:1013a00002d980235b02c918049b220463441e00f7
:1013b000089bbfb29e42ad418619d2198642bf41f9
:1013c0000298059b84466d42d218ab189c44039347
:1013d000059b60469a429241039b5242ab429b411d
:1013e0005b427f421a43029b3818240c1219b84200
:1013f000bf419c45a4417f4264423c431419641898
:10140000c30d64021c43099b75021d43691e8d4177
:10141000f60d354340020543e30167d501226b0811
:1014200015401d43e307d4401d43069b1d4a9b18ee
:10143000002b5edd6a0709d00f222a40042a05d05e
:101440002a1daa42ad416d4264191500e20106d57c
:101450008022d2009446144b1c40069b6344134ade
:10146000934200dd8be06207ed081543e40800219c
:1014700024030a0d1205240b14430d4a5b05144086
:101480005b082343019a5b00d2075b0813432800e3
:1014900019000bb0f0bdc046ff07000001fcffffc4
:1014a0000dfcffffff030000fffffffefe07000033
:1014b000ffff0f8080221203144257d0164255d1ed
:1014c00034001d00059b039350e0049b0193022f01
:1014d00055d0032f51d0012fa7d100252c002b0070
:1014e000c5e71d00059b34000193f5e6079b0693b5
:1014f0009be70122d21a382aefdc1f2a20dc2023a6
:1015000021009b1a28009d409940d0406b1e9d41b0
:10151000d44001430d436b0709d00f232b40042b0c
:1015200005d02b1dab42ad416d4264191d008023d7
:101530001b04234000d196e700240123250096e7f1
:101540001f214942cb1a2100d9400023202a03d071
:1015500040239a1a230093401d436b1e9d41002493
:101560000d43d8e7802400252403039580231b0323
:101570001c43039b0193034b79e7019ba3e70025e1
:081580002c00f8e7ff07000052
:020000040000fa
:10158800f0b5d14b8bb00d00994223dc4b005b08c2
:10159800034307d1002200230020cc49fff73cfb7e
:1015a8000bb0f0bd002906da02000b00fef78cfd37
:1015b80000220023f2e7c64b0022fff7cffd3623b7
:1015c8000d005b42c34a954206dd02000b00fff79f
:1015d80053f8e5e70023f5e7bf4a2c15a418e318ec
:1015e8002d03be4c2a0b0892141980225203144072
:1015f800bb4a089d624024151543e318290000934f
:101608000022b74bfef760fd089b040002331b0362
:101618000d001b0b0022022b64dc002300f0f2fefd
:10162800002819d0009b002b00d14ae1180000f0d7
:1016380053ffac4aac4b04000d00fff78ffdab4adb
:1016480006000f00aa4b20002900fff787fd0200c3
:101658000b0030003900bae7a64aa74b2000290042
:10166800fff77cfd02000b000020a449fef72cfdcb
:10167800220006000f002b0020002900fff76efd56
:101688000b00020039003000fff768fd009b0600e0
:101698000f00002b04d102000b00200029001ee0df
:1016a800009800f019ff8f4a8f4b00900191fff7c7
:1016b80055fd8e4a02900391009801998c4bfff7d3
:1016c8004dfd02000b0030003900fef7fdfc220042
:1016d8002b00fef7f9fc02000b0002980399fef7b5
:1016e800f3fc5de78023db05fef7c6ff02000b0075
:1016f80020002900fff790fa02900391009800f06b
:10170800ebfe029a039b0490059110001900fff765
:1017180025fd7b4a089b94466344099302000b000d
:1017280006900791fff71afd06000f00754a764be1
:10173800fff714fd754a764bfef79eff32003b001b
:10174800fff70cfd734a744bfef796ff32003b001f
:10175800fff704fd714a724bfef78eff069a079b4e
:10176800fff7fcfc6f4a069007916f4b3000390079
:10177800fff7f4fc6d4a6e4bfef77eff32003b002c
:10178800fff7ecfc6b4a6c4bfef776ff32003b0030
:10179800fff7e4fc02000b0006980799fef76cffc0
:1017a800089a664b069007919b1a099a1343002bd7
:1017b80050dd0022514b20002900fff7cffc2b0001
:1017c8002200fff7cbfc009b06000f00002b12d174
:1017d80002000b0006980799fef74eff029a039b3a
:1017e800fff7bcfc02000b0030003900fef76cfc70
:1017f80002000b0051e73b4a3b4b04980599fff761
:10180800adfc320000900191069807993b00fef765
:1018180033ff029a039bfff7a1fc344a029003911d
:1018280004980599324bfff799fc02000b000298c7
:101838000399fef721ff02000b0030003900fef784
:1018480043fc22002b00fef73ffc02000b0000982f
:10185800019944e7009b002b0ad1069a079b2000b8
:101868002900fef731fc029a039bfff777fcbfe7dc
:101878001c4a1d4b04980599fff770fc069a079bb4
:1018880006000f0020002900fef71efc029a039ba9
:10189800fff764fc154a0090019104980599144bd0
:1018a800fff75cfc02000b0000980199fef70cfca6
:1018b80022002b00fef708fc02000b003000390064
:1018c8000de7002000216be6ffff0f00000050c36a
:1018d80000005043ffffef7f01fcffff645f09003a
:1018e8000000f03f0000e0fe422ee63f763c7935ee
:1018f800ef39ea3d555555555555d53f0000e03f60
:1019080086ebf9ff44523edf12f1c23fde03cb966d
:101918006446c73f599322942449d23f935555555d
:101928005555e53f9fc678d0099ac33faf788e1dbd
:10193800c571cc3f04fa97999999d93f51b80600d7
:020000040000fa
:1019480080b584b000aff860b9601900bb1d1a807b
:101958003b1d0a1c1a80fb68002b23d0bb68002b98
:1019680020d02423fb181b78042b1bd8ba1d3b1d41
:1019780012881b889a4215d03b1d1822b9181a885c
:101988000b889a420ed01823fa181c23fb181288c9
:101998001b889a4206d01c23fa18bb1d12881b8884
:1019a8009a4201d1002375e0bb685b88ba1d128892
:1019b8009a420bd0bb681b88ba1d12889a4205d080
:1019c800bb689b88ba1d12889a4201d1002361e046
:1019d800bb685b883a1d12889a420bd0bb681b888b
:1019e8003a1d12889a4205d0bb689b883a1d128816
:1019f8009a4201d100234de0bb685b881822ba18cf
:101a080012889a420dd0bb681b881822ba1812880f
:101a18009a4206d0bb689b881822ba1812889a4244
:101a280001d1002336e0bb685b881c22ba181288f3
:101a38009a420dd0bb681b881c22ba1812889a4299
:101a480006d0bb689b881c22ba1812889a4201d11a
:101a580000231fe0fb68ba68da60fb68ba1d1288c9
:101a68005a80fb683a1d12889a80fb681822ba18b7
:101a78001288da80fb681c22ba1812881a81fb685f
:101a88002022ba1812781a70fb682422ba18127821
:0c1a98005a7001231800bd4604b080bd48
:020000040000fa
:101aa400f0b5354a85b004000d000b00914227dce7
:101ab4004a005208024307d10022002300202f4984
:101ac400fff7acf805b0f0bd002906da02000b0000
:101ad400fef7fcfa00220023f2e70022284bfff76e
:101ae4003ffb362204000d000b00524225498b4275
:101af40008dd22002b0020002900fef7bffde1e7ee
:101b04000022f3e72049181540188018c20f1b0360
:101b14001b0b80180092039300f0e0fc009a1b4b0f
:101b240006009b1a039a1b051a430f00200011009c
:101b3400fff728fd164a04000d00164b300039004b
:101b4400fff70efb144a00900191144b200029006a
:101b5400fff706fb02000b0000980199fef78efdcb
:101b64000f4a104b04000d0030003900fff7f8fa5b
:101b740002000b00bfe7c046ffff0f00000050c388
:101b840000005043ffffef7f01fcffffff03000055
:101b9400362bf111f3fe593d0ee526157bcbdb3fc9
:081ba40000609f501344d33f81
:020000040000fa
:101bac00f0b58db004000d00fff776ff384b060042
:101bbc001b780f005bb20093013364d022002b0022
:101bcc002000290000f08aff019000285bd1002240
:101bdc0000232000290000f023fc002853d0019b97
:101bec002c4e0a93009b0396049405950694079536
:101bfc00002b16d1e022284b1206089209932000e4
:101c0c0000220023290000f0fbfb002829d101232e
:101c1c000293009b022b19d101f02ef821230360b3
:101c2c0019e000221d4b2000089209932900002383
:101c3c0000f0e6fb0028ead002230293009b022b63
:101c4c0011d101f019f82223036011e002a801f070
:101c5c002bf80028e0d0b01d01f008f8089009918d
:101c6c0006e00223029302a801f01ef80028e8d037
:101c7c000a9b0093002b04d000f0feff0a9b0093fc
:101c8c000360089e099f300039000db0f0bdc046be
:101c9c009b0000209a2c0000ffffefc70000f0ff14
:020000040000fa
:101cac0090b585b000af78600a00bb1c1a807b68c9
:101cbc00002b04d0bb1c1b882f4a934201d9002354
:101ccc0056e0bb1c1b88180000f0aafc03000c009b
:101cdc0018002100fff764ff0022284bfef7cafc16
:101cec0003000c001a0023000f217c1810001900af
:101cfc0000f0befe030023700823fb1800221a60bc
:101d0c000e23fb1803221a7025e00e23fb181c78f7
:101d1c00bb1c1b880a21180000f0d8fa0b009bb2e0
:101d2c00dab20823fb181a55bc1cbb1c1b880a21f1
:101d3c00180000f08ffa030023800e23fb181a788a
:101d4c000e23fb18013a1a700f23fb181a780f2375
:101d5c00fb18013a1a700f23fb181b78002bd4d1f7
:101d6c000823fa187b681100180000f0b9fa012357
:101d7c001800bd4605b090bd0f2700000000f03fd5
:020000040000fa
:101d8c00600000201c000000000000008c000020ff
:101d9c0008000000000000009c000020040000006f
:101dac00000000009400002006000000000000006d
:101dbc007c00002010000000000000009a000020b1
:101dcc0001000000000000009b000020010000004a
:101ddc000100000001000000a00000200400000031
:101dec000100000000000020000000206000000046
:101dfc0001000000000000000000000000000000d6
:101e0c0000000000000000000000000000000000c6
:101e1c0000000000000000000000000000000000b6
:101e2c0000000000000000000000000000000000a6
:101e3c000000000000000000000000000000000096
:101e4c000000000000000000000000000000000086
:101e5c0000000000000000000000000022222222ee
:020000040000fa
:101e6c00b0b582b000af02003960fb1d1a70fb1dcb
:101e7c001b787f2b28d82f4cfb1d1b785bb29b0843
:101e8c002c49fa1d127852b29208c0329200525864
:101e9c00f91d0978080003210140c900ff20884082
:101eac000100c94311403a689201ff201040fa1d0d
:101ebc001278150003222a40d200904002000a43f7
:101ecc00c0339b001a5131e01b4cfb1d1b781a00d0
:101edc000f231340083b9908174afb1d1b78180069
:101eec000f230340083b9b0806339b00d318043395
:101efc001b68fa1d1278100003220240d200ff204a
:101f0c0090400200d2431a403b689b01ff201840ce
:101f1c00fb1d1b781d0003232b40db0098400300a6
:101f2c001a438b1d9b00e31804331a60c046bd4650
:0c1f3c0002b0b0bd00e100e000ed00e0ec
:020000040000fa
:101f4800f0b54d006d0dac4685b01d035e00db0f8e
:101f58000193264b0c030290240bc90f03922d0bff
:101f6800760d9c4503d12700022307432dd11f4b33
:101f78009e4203d12f000223174326d10027634630
:101f8800bb4203d1204347424741ffb2002e01d153
:101f98002a431dd0002f1fd0019b013b0120034382
:101fa80013e0b44501da4b1ef8e7ac4219d809d161
:101fb800029b039a934214d8029a03983b008242e8
:101fc800f1d302e03b00ac42edd3180005b0f0bd00
:101fd8003300002ff9d104e0019b994201d1b445a7
:101fe800dfdd012349420b43efe7c046ff0700004e
:020000040000fa
:101ff80080b582b000af244a234b9b8c9bb28021d2
:102008008b439bb29384c0461f4bdb68102213405e
:10201800102bf9d11d4b1b689b0edab2fb1d3f211b
:102028000a401a70fb1d1b783f2b02d0fb1d1a7843
:1020380000e01f22fb1d1a70154b1b689ab23b1d4e
:102048009205920d1a80104bfa1d12789202120412
:10205800110c3a1d12889205920d0a439a62c046e5
:10206800094bdb6810221340102bf9d1064b0222d2
:102078009a84c046044bdb6810221340102bf9d118
:10208800c046bd4602b080bd000800402460800004
:04209800286080003c
:020000040000fa
:10209c00f7b51e035c00db0f0093244b0d034f00c0
:1020ac0084462d0b7f0dc90f0192360b640d9f4298
:1020bc0002d12b0003432bd11c4b9c4202d1330089
:1020cc00134325d100239f4203d12843434243416c
:1020dc00dbb2002c01d132431dd0002b1fd0009855
:1020ec000138012103e0a74203da0120013908433a
:1020fc000de0b54218d807d1019a944514d81800b0
:10210c00019b9c45f1d302e01800b542edd3febd16
:10211c0002204042fbe72000002bf8d104e0009a9b
:10212c00914201d1a742dedd4842dae7ff07000009
:020000040000fa
:10213c0090b587b004af002000f07efc1c4b002152
:10214c00180000f03bfd00f0f9fc0a22194b1a6054
:10215c00184b1b681900022000f076fb00f01afdea
:10216c00fc1d15482c231522142100f0f9f803004e
:10217c0023701149114802230393012302932d2349
:10218c0001932e2300932f230822fff7d7fb030084
:10219c001a00fb1d1b781a40fb1d511e8a411a7038
:1021ac00074a064b11001800fff77afdf8e7c04606
:1021bc00ed2b00009c000020940000207c000020ef
:0421cc00d204000039
:020000040000fa
:1021d000204a214b70b50021934203d2197001337c
:1021e0009342fbd1002503261c4803684168002b5d
:1021f00018d100292dd083680c30002b18d0002373
:102200000022845c9c5401328a42fad333000b4092
:102210005a1e93418908591889004018036841687b
:10222000002be6d082680c30002a07d10029dcd0d0
:1022300059181d7001338b42fbd1d6e70029dfd13d
:1022400033000b405a1e93418908591889004018e1
:10225000e4e770bd00000020000000208c1d00009d
:020000040000fa
:10226000002934d00123002210b488422cd3012449
:102270002407a14204d2814202d209011b01f8e7de
:10228000e400a14204d2814202d249005b00f8e797
:10229000884201d3401a1a434c08a04202d3001bc3
:1022a0005c0822438c08a04202d3001b9c082243f6
:1022b000cc08a04202d3001bdc082243002803d034
:1022c0001b0901d00909e3e7101c10bc704701b5d8
:1022d000002000f0edfc02bd0029f8d003b5fff7a7
:0c22e000c1ff0ebc4243891a1847c046db
:020000040000fa
:1022ec0080b586b000af786039607b6802333b61a3
:1022fc0000237b612ae03a687b69d3181b781900ac
:10230c000f23fb18154a525c1a707b68da680f238e
:10231c00fb181b781900100000f0a0f83b691b8813
:10232c000121180000f0dcf9c046c046c046c0468a
:10233c00c046c0463b691b880021180000f0d0f94c
:10234c003b6902333b617b6901337b617b69032b06
:10235c00d1d9c046bd4606b080bdc0466c2c00002d
:020000040000fa
:10236c0090b585b000aff8600c00100019000a237e
:10237c00fb18221c1a800823fb18021c1a80bb1d98
:10238c000a1c1a80fb68002b15d00a23fa180823a4
:10239c00fb1812881b889a420dd00823fa18bb1d13
:1023ac0012881b889a4206d00a23fa18bb1d128881
:1023bc001b889a4201d100230ee0fb680a22ba184e
:1023cc0012881a80fb680822ba1812885a80fb6897
:1023dc00ba1d12889a8001231800bd4605b090bd25
:020000040000fa
:1023ec008446101c62468c46191c634600e0c046ad
:1023fc001fb5fff7a3fd002801d40021c8421fbd63
:10240c0010b500f0a1f84042013010bd10b5fff737
:10241c0095fd002801db002010bd012010bdc04639
:10242c0010b5fff78bfd002801dd002010bd012049
:10243c0010bdc04610b5fff72bfe002801dc0020b4
:10244c0010bd012010bdc04610b5fff721fe0028bd
:0c245c0001da002010bd012010bdc046b8
:020000040000fa
:1024680080b584b000af78600a00fb1c1a700023a6
:10247800fb601ee07b689888fb1c1a78fb689a4012
:1024880013001a00802313405a1e9341dbb219002f
:1024980000f056f97b681b880121180000f050f9fc
:1024a8007b681b880021180000f04af9fb6801339b
:1024b800fb60fb68072bddd97b685b88012118006e
:1024c80000f03ef97b685b880021180000f038f9bd
:0824d800c046bd4604b080bd02
:020000040000fa
:1024e000f8b5051e2ad0c317c5185d40c40f2800d3
:1024f00000f08afa1349144b091a5b1a1f2b17dcd8
:102500000b22101a2a00c2409d4010000027000331
:102510003a0d000b120502430c484b0502405b08c4
:1025200013435b00e4075b08234328001900f8bd50
:102530002800074b00255b1a9840e7e701000400dc
:10254000e4e7c0461e04000033040000ffff0f80d4
:1025500013040000f0b50c0385b04d000600c90f50
:1025600017481f0301915900db0f240b6d0d0392d7
:102570003f0b490d0293854206d1230001203343ce
:102580001ad1a94218d101e0814203d13a43012076
:10259000002a11d101208d420ed1bc420cd1039ae8
:1025a000964209d1019b029a934207d0002d03d194
:1025b00034432000441ea04105b0f0bd0020fbe7dd
:1025c000ff07000030b5134c0b034a0005001b0b3e
:1025d000520dc90f0020a24204dd0f48824202dde5
:1025e0000e4bc81830bd80200d4c40030343a41a85
:1025f0001f2c09dc0b48e5401218934018002843b3
:102600000029efd04042ede70748821ad340180076
:10261000f6e7c046fe0300001d040000ffffff7f39
:1026200033040000edfbffff1304000070b5051e2e
:1026300021d000f0e9f9124c124b241a1b1b1f2b5e
:1026400013dc0b22101a2a009d40c2400021120305
:10265000130b0a0d12051a4363050b4c5b0822404d
:1026600013435b002800590870bd2a00074b002562
:102670001b1b9a40eae7020005000400e6e7c0469b
:102680001e04000033040000ffff0f80130400004d
:020000040000fa
:1026900080b500af144b01221a60c046124b9b68f4
:1026a00001221340fad1104b902212011a600e4bf6
:1026b00000225a610c4b0222da630b4b19225a6436
:1026c000094b19229a64084b1922da64064b192225
:1026d0001a65054bb4221a64c046034b9b68002b55
:0c26e000fbd1c046bd4680bd002000427a
:020000040000fa
:1026ec0080b582b000af0200bb1d1a807b1d0a1c96
:1026fc001a70bb1d1b885b099bb20f4a944663443e
:10270c00d801bb1d1b881f22134001229a401100c7
:10271c007b1d1b78002b07d0bb1d1b881f22134071
:10272c0001229a40130000e000231a0000f01cfa6a
:10273c00c046bd4602b080bd8800820080b582b024
:10274c0000af0200bb1d1a807b1d0a1c1a70bb1d3a
:10275c001b885b099bb20f4a94466344d801bb1d8e
:10276c001b881f22134001229a4011007b1d1b78ed
:10277c00002b07d0bb1d1b881f22134001229a403f
:10278c00130000e000231a0000f0eef9c046bd462d
:08279c0002b080bd880082003c
:020000040000fa
:1027a40080b500af134bc02292031a60114b8022f4
:1027b40012021a610f4a4a230121d1540d4a4f23b0
:1027c4000621d1540b4a54230021d154094a5523dc
:1027d4000021d154074a35230521d15405498022cb
:1027e40080235b018b50034acc230021d154c04683
:0827f400bd4680bd0044004118
:020000040000fa
:1027fc0080b500af114b01221a80c0460f4bdb7b1a
:10280c00dbb25bb2002bf9db0c4b68221a800b4b52
:10281c000b4a9a61094b3b229a730a4b00221a60ad
:10282c00064b01225a73c046044bdb7bdbb25bb216
:10283c00002bf9dbc046bd4680bdc04600300042cf
:08284c00003e49008c00002051
:020000040000fa
:1028540080b584b000af02003960fb1d1a700f23ed
:10286400fb1800221a700f4b1a6bfb1d1b781033d8
:10287400da401300012213400cd10a49fb1d1b78d6
:102884003a681202120a1c339b005a500f23fb1899
:1028940001221a700f23fb181b781800bd4604b0e0
:0828a40080bdc0460020004287
:020000040000fa
:1028ac0010b5064c2378002b07d1054b002b02d01a
:1028bc00044800e000bf0123237010bd600000201d
:1028cc000000000000000000044b10b5002b03d0ea
:1028dc000349044800e000bf10bdc04600000000e2
:0828ec00640000200000000060
:020000040000fa
:1028f40080b500af00f09af9fff77cfb00f00cf90b
:10290400074b084a5a80064b074a5a80074b084a25
:102914001a62084b00221a62c046bd4680bdc046fa
:10292400000c00401a4000001c400000000400405d
:08293400003101000008004021
:020000040000fa
:10293c0010b50a4b98470a4b9847fff743fc094ad6
:10294c00ff21094b8b439360084b9847084b9847e2
:10295c00084b9847fff7ecfbfee7c0469f2b0000a7
:10296c009f2b000000ed00e0000000008529000016
:08297c009f2b00009f2b0000bf
:020000040000fa
:1029840070b500260c4d0d4c641ba410a64209d151
:102994000026fdf78bfb0a4d0a4c641ba410a642cb
:1029a40005d170bdb300eb5898470136eee7b3008c
:1029b400eb5898470136f2e7bc000000bc00000069
:0829c400bc000000c00000008f
:020000040000fa
:1029cc0080b582b000af0b4b9b7bdbb27b60094bbd
:1029dc003b229a73084b1b68002b06d0064b1a68d7
:1029ec00054b59687b6818009047c046bd4602b03d
:0c29fc0080bdc046003000428c0000206e
:020000040000fa
:102a08001c2101231b04984201d3000c10391b0a16
:102a1800984201d3000a08391b09984201d30009da
:102a2800043902a2105c40187047c0460403020231
:0c2a38000101010100000000000000008e
:020000040000fa
:102a440080b582b000af78600a4b06225a60fff767
:102a5400a7fefff74dff00f0f3f800f017f9fff7ba
:102a640015fefff7c9fe00f0d1f8c046bd4602b01e
:082a740080bdc0460040004196
:020000040000fa
:102a7c0070b500220b4b04000d00fff7e5fc00289d
:102a8c000bd0084b002220002900fdf71bfbfff7a1
:102a9c0093fd80231b06c01870bd20002900fff792
:082aac008bfdf9e70000e04199
:020000040000fa
:102ab40080b582b000af0200fb1d1a70fb1d1b78ad
:102ac4007f2b09d8064bfa1d127811001f220a40e9
:102ad400012191400a001a60c046bd4602b080bd83
:042ae40000e100e02d
:020000040000fa
:102ae80070b50b4e0d031c0349005b002d0b490dff
:102af800240b5b0db14203d105430120002d06d103
:102b08000020b34203d122431000421e904170bd01
:042b1800ff070000b3
:020000040000fa
:102b1c0080b500af074b084a5a60c046054b5b783e
:102b2c00dbb21a0080231340802bf7d0c046bd4681
:0c2b3c0080bdc046000c004000070100f6
:020000040000fa
:102b480080b500af084a084b1b889bb202210b4393
:102b58009bb21380c046044bdb7bdbb25bb2002b1d
:0c2b6800f9dbc046bd4680bd00300042d5
:020000040000fa
:102b740080b584b000aff860b9607a60fb68fa6829
:102b84001269b968c9431140ba68786802400a43b7
:0a2b94001a61c046bd4604b080bdc2
:020000040000fa
:022b9e0070477e
:020000040000fa
:102ba00080b500af074b074a126802210a431a603a
:102bb000c046044b9b6802221340fad1c046bd4672
:082bc00080bdc0460020004268
:020000040000fa
:102bc80080b582b000af78603960054b7a681a60ca
:102bd800034b3a685a60c046bd4602b080bdc04645
:042be8008c0000203d
:020000040000fa
:102bec0080b582b000af78603960054b1b78dbb2e2
:102bfc000133dab2024b1a70c046bd4602b080bd3a
:042c0c009a0000200a
:020000040000fa
:102c100080b500afbff35f8f62b603211320fff7cb
:0e2c200025f91320fff746ffc046bd4680bdd4
:020000040000fa
:022c2e00fee7bf
:020000040000fa
:102c300080b500af024b00229a61c046bd4680bd00
:042c40000008004048
:020000040000fa
:102c440080b500af024b82225a60c046bd4680bdab
:042c540000400041fb
:020000040000fa
:102c580003b47146490840004900095a49008e44a6
:042c680003bc7047f2
:020000040000fa
:0c2c6c00fc60daf26696bee0fef6c046a0
:020000040000fa
:0c2c7800002001497047c0460000f87fb2
:020000040000fa
:0c2c8400014b18687047c046a0000020fb
:020000040000fa
:0a2c900080b500afc046bd4680bd10
:020000040000fa
:072c9a006c6f673130000090
:020000040000fa
:062ca20080b500affee763
:020000040000fa
:062ca80080b500affee75d
:020000040000fa
:042cb0007047c04663
:020000040000fa
:042cb4000020704745
:020000040000fa
:0200000400807a
:0440000077c700d8a6
:020000040000fa
:0200000400807a
:044004005c00ffff5e
:00000001FF
