:020000040000fa
:10000000f07f0020a50500001b0700001d07000071
:1000100000000000000000000000000000000000e0
:1000200000000000000000000000000019070000b0
:100030000000000000000000190700001907000080
:100040001907000019070000190700001907000030
:100050001907000019070000190700001907000020
:100060001907000019070000d1000000190700005f
:100070001907000019070000190700001907000000
:1000800019070000190700001907000019070000f0
:1000900019070000190700001907000019070000e0
:1000a00019070000190700001907000019070000d0
:020000040000fa
:1000b000f8b5c046f8bc08bc9e4670473d05000038
:1000c000f8b5c046f8bc08bc9e4670471505000050
:020000040000fa
:1000d000f8b5ce46474680b55b4b9b7d002b17d0cd
:1000e000594a137edbb2927d52b2002a14db564a83
:1000f000137edbb2927dd20702d5db0700d588e004
:10010000514a137edbb2927d520701d55b0752d470
:100110000cbc90469946f8bd5bb2002be7da4a4b1f
:100120005b8b07221340e2d0484ce38500f0a6fa2f
:10013000454b84221a752c230022e254636a002b5b
:10014000d5d0424a906a9847d1e78368591c8160ac
:100150006146cb5c1385b168137e4d462b420fd0b0
:100160008c420dd953683b40012beed143469b682e
:10017000591c4546a9605b0061465b5a1385eae756
:10018000324b9a685b689a42bad3304b00221a7598
:100190005a602d4a01211175db68002bb0d02b4a23
:1001a00010699847ace7294988690a6a541c0c62af
:1001b0005200135217e0254a2c23d35c002ba7d002
:1001c000224b1a6adb699a42a2d21f4a138d9bb254
:1001d000516807220a40012ae5d01c4a9069116a39
:1001e0004c1c14624354194b1a6adb699a4200d0c2
:1001f0008ee7164b00222c215a54da61124a5831ec
:1002000011755b6a002b00d182e7104a906a98470b
:100210007ee70e4b1b7d002b00d171e70b4b9a68dc
:100220005c68094b1b7edb07aad5a242a8d2074b0c
:100230001b689c46044a0727044b984618001e007a
:10024000012399468ee7c046000c00425000002072
:020000040000fa
:100250001f4b00229a619a8c80218a439a841a004b
:100260001023d1680b42fcd01a4b1a68920e3f2a19
:100270002bd0194b1b689b059b0d92021343144a0c
:1002800093621023d1680b42fcd0114b02229a8456
:100290001a001023d1680b42fcd0104b104a5a6050
:1002a0001a0053785bb2002bfbdb0c4b0d4a5a80d3
:1002b0000d4a5a800d4a5a800d4a5a800d4b0e4afb
:1002c0001a62034b00221a627047203ad1e7c046f7
:1002d000000800402460800028608000000c00407e
:1002e00000070100154000001a4000001c400000fb
:0c02f0001e400000000400400831010026
:020000040000fa
:1002fc00f0b5c6461f4a204b00b50021934203d2ed
:10030c00197001339342fbd10b231c4a9c46083bca
:10031c0098461368546819000026214311d0170021
:10032c0091680c3700290fd11a19002c03d01e70bc
:10033c0001339342fbd13a001368546819002143ee
:10034c00edd104bc9046f0bd6146c91a1d19511877
:10035c00002c05d05a1c505c187013009542f9d132
:10036c00434623405a1e9341a4081c19a4003f196c
:10037c003a00e1e70000002000000020c404000067
:020000040000fa
:10038c001d4b01221a701a00537e5bb2002bfbdb53
:10039c001a4b1a681a4b596849011b68db0e0b4340
:1003ac000721114049010b435201e021c9000a40c9
:1003bc00ff210b401a43104b1a850322da70013ac5
:1003cc005a70c02252011a611a00537e5bb2002b84
:1003dc00fbdb094bc12292009a801a00537e5bb260
:1003ec00002bfbdb044b0f221a761a00537e5bb2f8
:1003fc00002bfbdb7047c0460040004224608000ad
:04040c0020608000ec
:020000040000fa
:1004100000230e4a10b513600d4a13600d4a136095
:100420000d4a13600d4a13600d4a53621361013384
:10043000936000f075f900f073f90a4c0a4b9c4286
:1004400000d310bd08cc9847f8e7c046a0000020b4
:100450000c00002008000020000000200400002004
:0c04600010000020bc000000c0000000e4
:020000040000fa
:10046c00114b124a1a60124a9a81c02292025a60a7
:10047c001a00d369002bfcd10b4a136802210b43e1
:10048c001360d369002bfcd10a4b00229a61da610c
:10049c001a622c215a545a621a605a609a601a7560
:1004ac00da60da857047c046000c00420401004057
:0804bc002bf6ffff50000020a9
:020000040000fa
:1004c400800000201c0000000000000050000020fc
:1004d40030000000000000009c0000200400000028
:1004e4000000000000000020500000000000000098
:1004f400a000002004000000000000000000000034
:10050400000000002222222222222222222222224f
:020000040000fa
:1005140010b5064c2378002b07d1054b002b02d0d5
:10052400044800e000bf0123237010bd80000020b8
:100534000000000000000000044b10b5002b03d0a5
:100544000349044800e000bf10bdc046000000009d
:080554008400002000000000fb
:020000040000fa
:10055c0010b50e4b01221a6019008b681a42fcd19f
:10056c000a4b00221a60022058615c690849214339
:10057c005961d8635a649a64da641a65054a1a6434
:10058c001a009368002bfcd110bdc046002000421d
:08059c00000f40358196980024
:020000040000fa
:1005a40010b50a4b98470a4b9847fff7a5fe094b2d
:1005b400ff229343084a9360084b9847084b984797
:1005c400084b984700f090f8fee7c0461f0700006c
:1005d4001f0700000000000000ed00e0110400000f
:0805e4001f0700001f070000c3
:020000040000fa
:1005ec0010b50b4b06225a6000f058f8fff72afea4
:1005fc0000f080f8fff734ff00f07bf8fff7a8ff5e
:10060c00fff7befe00f006f800f01cf810bdc04667
:04061c000040004159
:020000040000fa
:100620000a4b01221a801a00d37b5bb2002bfbdb42
:10063000064b68221a80963a9a6169329a731a00b8
:10064000d37b5bb2002bfbdb7047c046003000421f
:020000040000fa
:10065000bff35f8f62b6074bc22080001a5806496d
:100660001140c02212040a431a508022d2001a609c
:0c0670007047c04600e100e0ffff00ff03
:020000040000fa
:10067c00094b5b8b5b070dd0074b80221a76793abe
:10068c005a831b7e5b0705d5034b04211a8d1a7efa
:0c069c000a42fbd17047c046000c00422f
:020000040000fa
:1006a800084b802212021a614f22062199543132d6
:1006b8008021c90599505e32012199541f3a0331ae
:0806c800995470470044004101
:020000040000fa
:1006d000054a136802210b431360110002228b6844
:0c06e0001a42fcd17047c04600200042c6
:020000040000fa
:1006ec0010b50020fff77cfffff7ecff00f008f8d7
:0206fc00fee717
:020000040000fa
:0206fe00704743
:020000040000fa
:0c070000014b82225a607047004000410b
:020000040000fa
:0c070c00014b01229a627047002000425d
:020000040000fa
:02071800fee7fa
:020000040000fa
:02071a00fee7f8
:020000040000fa
:02071c00fee7f6
:020000040000fa
:02071e00704722
:020000040000fa
:02072000704720
:020000040000fa
:0200000400807a
:0440000077c700d8a6
:020000040000fa
:0200000400807a
:044004005c00ffff5e
:00000001FF
