:020000040000fa
:10000000f87f00200104000065060000670600007c
:1000100000000000000000000000000000000000e0
:100020000000000000000000000000006306000067
:1000300000000000000000006306000063060000ee
:10004000630600006306000063060000630600000c
:1000500063060000630600006306000063060000fc
:1000600063060000630600006306000063060000ec
:1000700063060000630600006306000063060000dc
:10008000630600006306000063060000c905000067
:1000900063060000630600006306000063060000bc
:1000a00063060000630600006306000063060000ac
:020000040000fa
:1000b000f8b5c046f8bc08bc9e467047e103000096
:1000c000f8b5c046f8bc08bc9e467047b9030000ae
:020000040000fa
:1000d000f0b5ce4600b50600894600241f2501274d
:1000e0001ee000f0b1fa30882b000340390099403f
:1000f0004009224b9c466044c0010a0000f0a4fa6b
:1001000030882b0003403900994040091b4b9c4626
:100110006044c001002200f097fa0134082c0fd08f
:10012000b3885809154a94466044c0012b403900f1
:10013000994000224b46a3401b06d2d50a00d0e7c7
:1001400070881f252b00034001242100994040099d
:100150000a4b9c466044c0010a0000f075fa7088a2
:1001600005402100a9404009044b9c466044c00161
:10017000002200f069fa04bc9146f0bd88008200bc
:020000040000fa
:100180001d4b00229a619a8c80218a439a8419001f
:100190001022cb681a42fcd0184b1b689b0e3f2bd9
:1001a00028d09b02164a12689205920d1343124af8
:1001b000936211001022cb681a42fcd002220e4b2f
:1001c0009a8419001022cb681a42fcd00d4a0e4bbb
:1001d0005a601a0053785bb2002bfbdb0a4b0b4ac8
:1001e0005a8002325a800a4a0a4b1a620022024b93
:1001f0001a6270471f23d4e7000800402460800083
:100200002860800000070100000c00401a40000038
:08021000003101000004004070
:020000040000fa
:10021800204a214b70b50021934203d21970013353
:100228009342fbd1002503261c4803684168002b34
:1002380018d100292dd083680c30002b18d000234a
:100248000022845c9c5401328a42fad333000b406a
:100258005a1e934189085918890040180368416853
:10026800002be6d082680c30002a07d10029dcd0a8
:1002780059181d7001338b42fbd1d6e70029dfd115
:1002880033000b405a1e93418908591889004018b9
:10029800e4e770bd000000200000002068030000b3
:020000040000fa
:1002a80010b5164b1b78002b07d0154b1b68aa2bd3
:1002b8001cd0134a136801331360104b1b78002bb2
:1002c80007d10f4b1b680a2b14d00d4a1368013b4a
:1002d80013600b4b1b680b4a126b520303d41b02af
:1002e8001b0a084a936700f08bf910bd0022034be4
:1002f8001a70e2e70122014b1a70eae72a0000208f
:080308002c000020002000423f
:020000040000fa
:1003100010b5002000f018f900210f4800f09af9fc
:1003200000f080f90d4b0a221a601b680c4a126b10
:10033000520303d41b021b0a094a936700f056f9c3
:100340002c2315221421074800f014f9054ca5218f
:100350002000fff7bdfefae7a90200002c000020f4
:080360000020004224000020ef
:020000040000fa
:10036800000000201c000000000000001c0000200d
:1003780008000000000000002c000020040000001d
:10038800000000002400002006000000000000001b
:100398002a00002001000000010000000100000008
:1003a8000000000000000000222222222222222235
:020000040000fa
:1003b80010b5064c2378002b07d1054b002b02d033
:1003c800044800e000bf0123237010bd0000002096
:1003d8000000000000000000044b10b5002b03d003
:1003e8000349044800e000bf10bdc04600000000fb
:0803f8000400002000000000d9
:020000040000fa
:1004000010b50a4b98470a4b9847fff705ff094a72
:10041000ff21094b8b439360084b9847084b984743
:10042000084b9847fff774fffee7c04661060000df
:100430006106000000ed00e000000000490400003b
:080440006106000061060000e6
:020000040000fa
:1004480070b500260c4d0d4c641ba410a64209d1b2
:100458000026fff729fe0a4d0a4c641ba410a64289
:1004680005d170bdb300eb5898470136eee7b300ed
:10047800eb5898470136f2e7bc000000bc000000ca
:08048800bc000000c0000000f0
:020000040000fa
:1004900001220c4b1a801a00d37b5bb2002bfbdbd2
:1004a000084b68221a80084a9a613b229a730021fd
:1004b000064a116001225a731a00d37b5bb2002beb
:1004c000fbdb70470030004200ca08001c0000201f
:020000040000fa
:1004d0000d4bc02292031a60802212021a61012180
:1004e0004a22995406214f229954002254215a54e9
:1004f00055215a540520352158548020400180212f
:0c0500005850cc215a5470470044004170
:020000040000fa
:10050c0001220d4b1a6019008b681a42fcd10a4b60
:10051c00902212011a6000225a610222da63192217
:10052c005a649a64da641a65b4221a641a009368dd
:0c053c00002bfcd17047c046002000429c
:020000040000fa
:1005480010b50622084b5a60fff7befffff714feee
:1005580000f070f800f01ff8fff7d4fffff794ffe2
:0c05680000f01af810bdc0460040004131
:020000040000fa
:1005740000280ad091420ad09a420ad099420ad05d
:10058400018042808380012070470020fce7002026
:0a059400fae70020f8e70020f6e780
:020000040000fa
:02059e007047a4
:020000040000fa
:1005a000bff35f8f62b6074ac420800013581b0256
:1005b0001b0ac02109060b43135080231b03136041
:0805c0007047c04600e100e0b5
:020000040000fa
:1005c80010b5064b987bc0b23b229a73044b1b684c
:1005d800002b02d0024a5168984710bd00300042f3
:0405e8001c000020d3
:020000040000fa
:1005ec00054a136802210b431360110002228b6829
:0c05fc001a42fcd17047c04600200042ab
:020000040000fa
:10060800054a537960210b435371110004228b680a
:0c0618001a42fcd17047c046002000428e
:020000040000fa
:10062400044a138802210b431380d37b5bb2002b53
:08063400fbdb704700300042bf
:020000040000fa
:0c063c008222014b5a60704700400041d0
:020000040000fa
:0c06480003695a4011405940016170479d
:020000040000fa
:0c065400014b1860596070471c0000202a
:020000040000fa
:020660007047e1
:020000040000fa
:02066200fee7b1
:020000040000fa
:02066400fee7af
:020000040000fa
:02066600fee7ad
:020000040000fa
:0200000400807a
:0440000077c700d8a6
:020000040000fa
:0200000400807a
:044004005c00ffff5e
:00000001FF
