:020000040000fa
:10000000f87f00208d040000a9060000ab06000068
:1000100000000000000000000000000000000000e0
:10002000000000000000000000000000a706000023
:100030000000000000000000a7060000a706000066
:10004000a7060000a7060000a7060000a7060000fc
:10005000a7060000a7060000a7060000a7060000ec
:10006000a7060000a7060000a7060000a7060000dc
:10007000a7060000a7060000a7060000a7060000cc
:10008000a7060000a7060000a70600000d06000056
:10009000a7060000a7060000a7060000a7060000ac
:1000a000a7060000a7060000a7060000a70600009c
:020000040000fa
:1000b000f8b5c046f8bc08bc9e4670476d04000009
:1000c000f8b5c046f8bc08bc9e4670474504000021
:020000040000fa
:1000d000f8b5ce46474680b5050089460024802302
:1000e00098461f2701261ee000f0d0fa28883b0022
:1000f0000340310099404009234b9c466044c001b5
:100100000a0000f0c3fa28883b0003403100994000
:1001100040091d4b9c466044c001002200f0b6fa25
:100120000134082c10d0ab884a46a24041460a4010
:10013000580915498c466044c0013b403100994044
:10014000002ad1d00a00cfe768881f263300034079
:10015000073c2100994040090b4b9c466044c0017c
:100160000a0000f093fa688806402100b140400977
:10017000054b9c466044c001002200f087fa0cbc8d
:0c01800090469946f8bdc04688008200f9
:020000040000fa
:10018c001d4b00229a619a8c80218a439a841a0012
:10019c001023d1680b42fcd0184b1a68920e3f2ae0
:1001ac0027d0174b1b689b059b0d92021343124ad9
:1001bc0093621023d1680b42fcd00f4b02229a841d
:1001cc001a001023d1680b42fcd00e4b0e4a5a6019
:1001dc001a0053785bb2002bfbdb0a4b0b4a5a809c
:1001ec000b4a5a800b4b0c4a1a62034b00221a62c0
:1001fc007047203ad5e7c0460008004024608000d4
:10020c0028608000000c0040000701001a4000002c
:0c021c001c400000000400400031010004
:020000040000fa
:10022800f0b5c6461f4a204b00b50021934203d2c1
:10023800197001339342fbd10b231c4a9c46083b9f
:1002480098461368546819000026214311d01700f6
:1002580091680c3700290fd11a19002c03d01e7091
:1002680001339342fbd13a001368546819002143c3
:10027800edd104bc9046f0bd6146c91a1d1951184c
:10028800002c05d05a1c505c187013009542f9d107
:10029800434623405a1e9341a4081c19a4003f1941
:1002a8003a00e1e70000002000000020b80200004a
:020000040000fa
:1002b800500000201c000000000000006c0000201e
:1002c80008000000000000007c000020040000007e
:1002d800000000007400002006000000000000007c
:1002e8007a00002001000000010000000100000069
:1002f8008000002004000000000000000000002032
:1003080050000000000000008400002004000000ed
:10031800000000000000000000000000222222224d
:020000040000fa
:1003280010b5164b1b78002b07d0154b1b68aa2b52
:100338001cd0134a136801331360104b1b78002b31
:1003480007d10f4b1b680a2b14d00d4a1368013bc9
:1003580013600b4b1b680b4a126b520303d41b022e
:100368001b0a084a936700f06df910bd034b002281
:100378001a70e2e7014b01221a70eae77a000020be
:080388007c000020002000426f
:020000040000fa
:1003900000230e4a10b513600d4a13600d4a136016
:1003a0000d4a13600d4a13600d4a53621361013305
:1003b000936000f07bf900f079f90a4c0a4b9c42fb
:1003c00000d310bd08cc9847f8e7c0468400002051
:1003d0000c00002008000020000000200400002085
:0c03e00010000020bc000000c000000065
:020000040000fa
:1003ec0010b5002000f0ccf800210f4800f04ef9b9
:1003fc0000f034f90d4b0a221a601b680c4a126b80
:10040c00520303d41b021b0a094a936700f00af932
:10041c002c2315221421074800f0c8f8054ca521ff
:10042c002000fff74ffefae7290300007c000020b4
:08043c000020004274000020c2
:020000040000fa
:1004440010b5064c2378002b07d1054b002b02d0a6
:10045400044800e000bf0123237010bd50000020b9
:100464000000000000000000044b10b5002b03d076
:100474000349044800e000bf10bdc046000000006e
:080484005400002000000000fc
:020000040000fa
:10048c0010b50a4b98470a4b9847fff7c7fe094b24
:10049c00ff229343084a9360084b9847084b9847b0
:1004ac00084b9847fff79cfffee7c046a5060000e7
:1004bc00a50600000000000000ed00e09103000024
:0804cc00a5060000a5060000d2
:020000040000fa
:1004d4000c4b01221a801a00d37b5bb2002bfbdb8e
:1004e400084b68221a80084a9a613b229a73074a89
:1004f4000021116001225a731a00d37b5bb2002bd6
:10050400fbdb70470030004200ca08006c0000208a
:020000040000fa
:100514000d4bc02292031a60802212021a614a22f1
:100524000121995405320531995400224e315a540f
:1005340001315a542039052058544b318020400150
:0c05440058504c315a547047004400419c
:020000040000fa
:100550000d4b01221a6019008b681a42fcd10a4b1c
:10056000902212011a6000225a610232da631732b5
:100570005a649a64da641a659b321a641a009368a2
:0c058000002bfcd17047c0460020004258
:020000040000fa
:10058c0010b5094b06225a60fff7befffff7f8fdc6
:10059c0000f070f800f01ff8fff7d4fffff794ff9e
:0c05ac0000f01af810bdc04600400041ed
:020000040000fa
:1005b80000280ad091420ad09a420ad099420ad019
:1005c800018042808380012070470020fce70020e2
:0a05d800fae70020f8e70020f6e73c
:020000040000fa
:0205e200704760
:020000040000fa
:1005e400bff35f8f62b6074ac420800013581b0212
:1005f4001b0ac02109060b43135080231b031360fd
:080604007047c04600e100e070
:020000040000fa
:10060c0010b5064b987bc0b23b229a73044b1b6807
:10061c00002b02d0024a5168984710bd00300042ae
:04062c006c0000203e
:020000040000fa
:10063000054a136802210b431360110002228b68e4
:0c0640001a42fcd17047c0460020004266
:020000040000fa
:10064c00054a537960210b435371110004228b68c6
:0c065c001a42fcd17047c046002000424a
:020000040000fa
:10066800044a138802210b431380d37b5bb2002b0f
:08067800fbdb7047003000427b
:020000040000fa
:0c068000014b82225a607047004000418c
:020000040000fa
:0c068c0003695a40114059400161704759
:020000040000fa
:0c069800014b1860596070476c00002096
:020000040000fa
:0206a40070479d
:020000040000fa
:0206a600fee76d
:020000040000fa
:0206a800fee76b
:020000040000fa
:0206aa00fee769
:020000040000fa
:0206ac00704795
:020000040000fa
:0200000400807a
:0440000077c700d8a6
:020000040000fa
:0200000400807a
:044004005c00ffff5e
:00000001FF
